S00F000061726475696E6F2E7372656323
S11300000C9462000C948A000C948A000C948A006C
S11300100C948A000C948A000C948A000C948A0034
S11300200C948A000C948A000C948A000C948A0024
S11300300C948A000C948A000C948A000C948A0014
S11300400C94F8010C948A000C9480040C94C3045E
S11300500C948A000C948A000C948A000C948A00F4
S11300600C948A000C948A0000000007000201002E
S11300700003040600000000000000000102040860
S113008010204080010204081020010204081020FE
S1130090040404040404040402020202020203032A
S11300A003030303000000002300260029000000CE
S11300B00000250028002B00000000002400270079
S11300C02A007F0511241FBECFEFD8E0DEBFCDBFCD
S11300D011E0A0E0B1E0E0ECFCE002C005900D927C
S11300E0AE31B107D9F721E0AEE1B1E001C01D9214
S11300F0AA3DB207E1F710E0C4ECD0E004C02297B7
S1130100FE010E944B06C23CD107C9F70E94A6001B
S11301100C945E060C94000080E00C942D0161E0C8
S1130120809107010E94FA0261E0809103010E941C
S1130130FA0260E0809105010E94FA0240E052EC6C
S113014061E070E08CE291E00C94FE040E946A018C
S113015078940E9496020E948F00CAEBD4E00E9419
S11301608C002097E1F30E94BA04F9CF60E08091FB
S113017003010E94330382E090E00E948B0261E05D
S1130180809103010E9433038AE090E00E948B0275
S113019060E0809103010E94330328EB3BE040E0E0
S11301A050E061E0809105010E94690361157105C9
S11301B08105910549F06093210170932201809398
S11301C02301909324010CC080E197E2A0E0B0E009
S11301D08093210190932201A0932301B0932401E1
S11301E06091210170912201809123019091240159
S11301F008950E94B60060912101709122018091BE
S11302002301909124012AE330E040E050E00E9471
S11302101F0620931F013093200140932101509326
S1130220220108950E94F90080911F0190912001FC
S1130230A0912101B09122014597A105B10514F0C7
S113024061E001C060E0809107010E94330368EC23
S113025070E080E090E00C9465021F93CF93DF93ED
S11302601FB7F894C82FDD27C7FDD095C952DE4FBC
S11302709881911102C00E948F0188818F3F11F0F3
S11302808F5F88838091D801882329F01FBFDF9175
S1130290CF911F910895809100018F3FB9F3209170
S11302A01E01992787FD9095FC01E65FFE4F308182
S11302B0231760F7FC01E75FFE4F8081822B809358
S11302C01E010E947E010E946C0187FFFCCFDECFDD
S11302D0F894FFCFE0ED08957894E82FEE0FFF0B2C
S11302E0E55FFE4F0190F081E02D309709F009950C
S11302F0F8940E94BC018091D90108958091000175
S1130300E82FFF27E7FDF095EE5FFE4F9081909375
S113031000019091010190838093010108959091CF
S11303200001282F332727FD3095F901E65FFE4FA2
S11303307081EFEF9F3F81F0492F552747FD50957E
S1130340DA01A65FBE4F6C91671730F0DA01AE5F39
S1130350BE4FE92F9C91EECFEF3F39F0FF27E7FD29
S1130360F095EE5FFE4F808302C080930001F90197
S1130370EE5FFE4F9083089580910101282F33276B
S113038027FD3095F901E952FE4F908191509083F9
S1130390F901E75FFE4F5081509540911E014523BE
S11303A040931E01F901EE5FFE4F2081209301016D
S11303B091110E948F01809100018F3F59F020918B
S11303C01E01992787FD9095FC01E65FFE4F308161
S11303D0231710F08FEF09C0FC01E75FFE4F808107
S11303E0822B80931E010E947E018093D90108957F
S11303F01F920F920FB60F9211242F933F938F9356
S11304009F93AF93BF938091240190912501A09174
S11304102601B09127013091230123E0230F2D37CA
S113042020F40196A11DB11D05C026E8230F0296F4
S1130430A11DB11D209323018093240190932501D4
S1130440A0932601B093270180912801909129015E
S1130450A0912A01B0912B010196A11DB11D809399
S1130460280190932901A0932A01B0932B01BF91F5
S1130470AF919F918F913F912F910F900FBE0F904D
S11304801F9018953FB7F894809128019091290105
S1130490A0912A01B0912B0126B5A89B05C02F3F3E
S11304A019F00196A11DB11D3FBF6627782F892F32
S11304B09A2F620F711D811D911D42E0660F771FF7
S11304C0881F991F4A95D1F70895CF92DF92EF9232
S11304D0FF92CF93DF936B017C010E944202EB01F8
S11304E0C114D104E104F10479F00E9442026C1BAE
S11304F07D0B683E7340A0F381E0C81AD108E1087F
S1130500F108C851DC4FECCFDF91CF91FF90EF9011
S1130510DF90CF9008950197009739F0880F991FC5
S1130520880F991F02970197F1F70895789484B57D
S1130530826084BD84B5816084BD85B5826085BDDB
S113054085B5816085BDEEE6F0E0808181608083C1
S1130550E1E8F0E0108280818260808380818160A4
S11305608083E0E8F0E0808181608083E1EBF0E06B
S1130570808184608083E0EBF0E08081816080830F
S1130580EAE7F0E0808184608083808182608083F8
S11305908081816080838081806880831092C10023
S11305A00895833081F028F4813099F08230A1F0ED
S11305B008958630A9F08730B9F08430D1F4809161
S11305C080008F7D03C0809180008F7780938000AE
S11305D0089584B58F7702C084B58F7D84BD089556
S11305E08091B0008F7703C08091B0008F7D80939D
S11305F0B0000895CF93DF9390E0FC01E458FF4FDF
S11306002491FC01E057FF4F8491882349F190E045
S1130610880F991FFC01E854FF4FA591B4918255AE
S11306209F4FFC01C591D4919FB7611108C0F89404
S11306308C91209582238C93888182230AC0623016
S113064051F4F8948C91322F309583238C938881C4
S1130650822B888304C0F8948C91822B8C939FBF47
S1130660DF91CF9108950F931F93CF93DF931F9240
S1130670CDB7DEB7282F30E0F901E859FF4F849158
S1130680F901E458FF4F1491F901E057FF4F049129
S11306900023C9F0882321F069830E94D102698173
S11306A0E02FF0E0EE0FFF1FE255FF4FA591B4914C
S11306B09FB7F8948C91611103C01095812301C0F8
S11306C0812B8C939FBF0F90DF91CF911F910F913E
S11306D00895CF92DF92EF92FF920F931F93CF93DF
S11306E0DF9390E0FC01E458FF4FD491FC01E05704
S11306F0FF4F7491611102C0C0E001C0CD2FDA0137
S1130700C901BF70672F70E0660F771F6C557F4F6C
S113071000E010E09801FB01E590F490F7014081BE
S11307204D234C131EC0680179014FEFC41AD40A3B
S1130730E40AF40A081719072A073B0709F442C018
S113074097018601E8CF68017901FFEFCF1ADF0A2C
S1130750EF0AFF0A081719072A073B0799F19701BF
S11307608601FB01E590F490F70140814D234C1381
S1130770EACF801B910BA20BB30B20E030E0A90160
S1130780FB01E590F490F701F080FD22FC120AC011
S1130790281739074A075B07A9F02F5F3F4F4F4FD0
S11307A05F4FEECFA5E1B0E00E943E06605F7F4F51
S11307B08F4F9F4F24E096958795779567952A9557
S11307C0D1F703C060E070E0CB01DF91CF911F91BE
S11307D00F91FF90EF90DF90CF900895FC01248556
S11307E03585F901E05CFF4F80819181329620814B
S11307F03181821B930B8F7399270895FC018485A3
S11308009585FC01E05CFF4F408151813296208147
S113081031814217530741F00190F081E02DE80F38
S1130820F91F808190E008958FEF9FEF0895FC01F8
S113083084859585FC01E05CFF4F408151813296AF
S1130840208131814217530779F0A081B181A80F2B
S1130850B91F8C91208131812F5F3F4F2F73332734
S11308603183208390E008958FEF9FEF0895FC017A
S113087081A1882329F0A489B5898C9186FFFBCFB7
S113088011A20895CF93DF93FC0126853785D90102
S1130890A05CBF4F8D919C91119701968F739927FE
S11308A0E901CE5BDF4F4881598184179507D9F35D
S11308B00D90BC91A02DA20FB31F6C93A685B78594
S11308C0A05CBF4F11969C938E93A689B7892C91F7
S11308D081E090E0078C02C0880F991F0A94E2F728
S11308E0282B2C9381E081A30488F589E02D808155
S11308F08064808381E090E0DF91CF910895089532
S11309001F920F920FB60F9211242F933F934F9380
S11309108F939F93EF93FF938091C00082FD1CC03F
S11309204091C6008091D2019091D30101968F73BA
S113093099272091D4013091D5018217930771F042
S1130940E091D201F091D301EE56FE4F4083909393
S1130950D3018093D20102C08091C600FF91EF9130
S11309609F918F914F913F912F910F900FBE0F90B8
S11309701F9018958CE291E00E94EE03892B11F0F0
S11309800C947F0408951F920F920FB60F921124B6
S11309902F933F938F939F93EF93FF9320918E0117
S11309A030918F018091900190919101281739071E
S11309B031F48091C1008F7D8093C10014C0E09117
S11309C09001F0919101E25BFE4F208180919001B2
S11309D09091910101968F7399279093910180933F
S11309E090012093C600FF91EF919F918F913F91C9
S11309F02F910F900FBE0F901F901895CF92DF92FA
S1130A00EF92FF92CF93DF93EC016A017B014115D2
S1130A1081EE580761057105F9F0EC89FD8981E0E3
S1130A2090E008A002C0880F991F0A94E2F780831F
S1130A3060E079E08DE390E0A70196010E94FD0556
S1130A402150310941095109569547953795279504
S1130A50211580E1380798F0EC89FD89108260E85F
S1130A6074E88EE190E0A70196010E94FD052150F3
S1130A703109410951095695479537952795E889D4
S1130A80F9893083EA89FB89208319A2EE89FF89D9
S1130A90408181E090E09C010C8C02C0220F331F46
S1130AA00A94E2F7422B4083EE89FF8940819C013E
S1130AB00D8C02C0220F331F0A94E2F7422B4083AD
S1130AC0EE89FF8940819C010E8C02C0220F331FE6
S1130AD00A94E2F7422B4083EE89FF8920810F8C30
S1130AE002C0880F991F0A94E2F7809582238083BD
S1130AF0DF91CF91FF90EF90DF90CF900895109207
S1130B002F0110922E0188EE93E0A0E0B0E08093D4
S1130B10300190933101A0933201B093330181E10C
S1130B2091E090932D0180932C0182E991E09093C0
S1130B303901809338018EE491E090933B018093D6
S1130B403A0185EC90E090933D0180933C0184EC64
S1130B5090E090933F0180933E0180EC90E090936D
S1130B6041018093400181EC90E090934301809394
S1130B70420182EC90E0909345018093440186EC1D
S1130B8090E0909347018093460184E0809348016C
S1130B9083E08093490187E080934A0185E0809354
S1130BA04B0181E080934C010895CF92DF92EF9244
S1130BB0FF920F931F93CF93DF936C017A01EB01A4
S1130BC0E60EF71E00E010E0CE15DF0561F0699136
S1130BD0D601ED91FC910190F081E02DC6010995BB
S1130BE0080F191FF1CFC801DF91CF911F910F9109
S1130BF0FF90EF90DF90CF900895A1E21A2EAA1BE8
S1130C00BB1BFD010DC0AA1FBB1FEE1FFF1FA217B8
S1130C10B307E407F50720F0A21BB30BE40BF50BB5
S1130C20661F771F881F991F1A9469F7609570953E
S1130C30809590959B01AC01BD01CF010895052ECF
S1130C4097FB1EF400940E94360657FD07D00E94BD
S1130C50FD0507FC03D04EF40C94360650954095E0
S1130C60309521953F4F4F4F5F4F08959095809554
S1130C70709561957F4F8F4F9F4F08950E944F0647
S1130C80A59F900DB49F900DA49F800D911D1124DC
S1130C900895EE0FFF1F0590F491E02D0994A29F93
S1130CA0B001B39FC001A39F700D811D1124911D3C
S1130CB0B29F700D811D1124911D0895F894FFCFEA
S1130CC0FFFFFF090008000D0001011201000000F0
S1110CD0004204D505EE031704FE03370400AA
S9030000FC
