:100000000C9435000C945D000C945D000C945D0024
:100010000C945D000C945D000C945D000C945D00EC
:100020000C945D000C945D000C945D000C945D00DC
:100030000C945D000C945D000C945D000C945D00CC
:100040000C94F3010C945D000C940A030C944D0382
:100050000C945D000C945D000C945D000C945D00AC
:100060000C945D000C945D00090411241FBECFEFB9
:10007000D8E0DEBFCDBF11E0A0E0B1E0E6EAFBE0F2
:1000800002C005900D92A831B107D9F721E0A8E18F
:10009000B1E001C01D92A63DB207E1F710E0CAE64B
:1000A000D0E004C02297FE010E94CD05C836D107DA
:1000B000C9F70E946F000C94D1050C94000080E0F9
:1000C0000C942801219884B1816284B9299A40E076
:1000D00052EC61E070E082E291E00C9488030E94AF
:1000E000650178940E943D020E946200C4E4D3E05E
:1000F0000E945F002097E1F30E944403F9CF80EC57
:1001000097E2A9E0B0E019990AC00197A109B109E5
:100110000097A105B105B9F78FEF9FEF08951092F1
:10012000800082E08093810010928500109284000C
:1001300080EC97E2A9E0B0E0199B0FC02091840009
:100140003091850021363A4E40F40197A109B1095A
:100150000097A105B10581F7DFCF809184009091D0
:100160008500A0E0B0E01092810081362AEE92076F
:10017000A105B10528F4B695A7959795879508959B
:100180008EEF9FEF089528982AE02A95F1F700C096
:10019000289A85E38A95F1F7000028980E947F004D
:1001A000BC0180E090E06093D0017093D101809316
:1001B000D2019093D3010E94BA0428E23EE74CE0BA
:1001C0005DE30E94460520E030E040E05FE30E94EE
:1001D00046050E9487047093CF016093CE0165317C
:1001E000710514F02D9808959B0120513109253097
:1001F000310598F42D9A9FEF2EE984E2915020402A
:100200008040E1F700C000002D989FEF2EE984E2C6
:10021000915020408040E1F717C06B5071092D9A32
:1002200065307105A0F49FEF25EA8EE091502040E3
:100230008040E1F700C000002D989FEF25EA8EE096
:10024000915020408040E1F700C0000008950895DB
:100250001F93CF93DF931FB7F894C82FDD27C7FDF7
:10026000D095C353DE4F9881911102C00E948A013C
:1002700088818F3F11F08F5F88838091D40188231C
:1002800029F01FBFDF91CF911F9108958091000148
:100290008F3FB9F320911801992787FD9095FC01B4
:1002A000EC5FFE4F3081231760F7FC01ED5FFE4FDE
:1002B0008081822B809318010E9479010E9467013E
:1002C00087FFFCCFDECFF894FFCFE6EC089578945B
:1002D000E82FEE0FFF0BEB5FFE4F0190F081E02D5A
:1002E000309709F00995F8940E94B7018091D501E3
:1002F000089580910001E82FFF27E7FDF095EE5F5C
:10030000FE4F908190930001909101019083809322
:100310000101089590910001282F332727FD309582
:10032000F901EC5FFE4F7081EFEF9F3F81F0492FA5
:10033000552747FD5095DA01AC5FBE4F6C916717AA
:1003400030F0DA01AE5FBE4FE92F9C91EECFEF3F68
:1003500039F0FF27E7FDF095EE5FFE4F808302C086
:1003600080930001F901EE5FFE4F90830895809124
:100370000101282F332727FD3095F901E353FE4F64
:10038000908191509083F901ED5FFE4F508150951F
:1003900040911801452340931801F901EE5FFE4F8B
:1003A00020812093010191110E948A018091000116
:1003B0008F3F59F020911801992787FD9095FC01F6
:1003C000EC5FFE4F3081231710F08FEF09C0FC0166
:1003D000ED5FFE4F8081822B809318010E9479018E
:1003E0008093D50108951F920F920FB60F9211249A
:1003F0002F933F938F939F93AF93BF9380911A0155
:1004000090911B01A0911C01B0911D013091190127
:1004100023E0230F2D3720F40196A11DB11D05C047
:1004200026E8230F0296A11DB11D20931901809388
:100430001A0190931B01A0931C01B0931D018091A0
:100440001E0190911F01A0912001B0912101019600
:10045000A11DB11D80931E0190931F01A093200147
:10046000B0932101BF91AF919F918F913F912F91B7
:100470000F900FBE0F901F901895789484B58260EE
:1004800084BD84B5816084BD85B5826085BD85B538
:10049000816085BDEEE6F0E0808181608083E1E8E7
:1004A000F0E010828081826080838081816080831F
:1004B000E0E8F0E0808181608083E1EBF0E0808122
:1004C00084608083E0EBF0E0808181608083EAE7F4
:1004D000F0E080818460808380818260808380817D
:1004E000816080838081806880831092C10008953C
:1004F000FC0124853585F901E05CFF4F8081918105
:10050000329620813181821B930B8F739927089536
:10051000FC0184859585FC01E05CFF4F40815181A1
:100520003296208131814217530741F00190F081CA
:10053000E02DE80FF91F808190E008958FEF9FEF85
:100540000895FC0184859585FC01E05CFF4F4081A6
:1005500051813296208131814217530779F0A08171
:10056000B181A80FB91F8C91208131812F5F3F4F3E
:100570002F7333273183208390E008958FEF9FEF0F
:100580000895FC0181A1882329F0A489B5898C9163
:1005900086FFFBCF11A20895CF93DF93FC01268540
:1005A0003785D901A05CBF4F8D919C911197019621
:1005B0008F739927E901CE5BDF4F488159818417FA
:1005C0009507D9F30D90BC91A02DA20FB31F6C938A
:1005D000A685B785A05CBF4F11969C938E93A68984
:1005E000B7892C9181E090E0078C02C0880F991F99
:1005F0000A94E2F7282B2C9381E081A30488F589E3
:10060000E02D80818064808381E090E0DF91CF9154
:10061000089508951F920F920FB60F9211242F93F1
:100620003F934F938F939F93EF93FF938091C000DD
:1006300082FD1CC04091C6008091C8019091C90103
:1006400001968F7399272091CA013091CB018217AF
:10065000930771F0E091C801F091C901E857FE4F8E
:1006600040839093C9018093C80102C08091C60065
:10067000FF91EF919F918F914F913F912F910F900B
:100680000FBE0F901F90189582E291E00E947802B1
:10069000892B11F00C94090308951F920F920FB645
:1006A0000F9211242F933F938F939F93EF93FF9378
:1006B000209184013091850180918601909187017C
:1006C0002817390731F48091C1008F7D8093C100D4
:1006D00014C0E0918601F0918701EC5BFE4F208110
:1006E000809186019091870101968F73992790934D
:1006F0008701809386012093C600FF91EF919F911F
:100700008F913F912F910F900FBE0F901F901895D2
:10071000CF92DF92EF92FF92CF93DF93EC016A01C9
:100720007B01411581EE580761057105F9F0EC89EF
:10073000FD8981E090E008A002C0880F991F0A940B
:10074000E2F7808360E079E08DE390E0A701960115
:100750000E94A90521503109410951095695479533
:1007600037952795211580E1380798F0EC89FD89A8
:10077000108260E874E88EE190E0A70196010E9483
:10078000A9052150310941095109569547953795D9
:100790002795E889F9893083EA89FB89208319A2A2
:1007A000EE89FF89408181E090E09C010C8C02C0C1
:1007B000220F331F0A94E2F7422B4083EE89FF8910
:1007C00040819C010D8C02C0220F331F0A94E2F776
:1007D000422B4083EE89FF8940819C010E8C02C030
:1007E000220F331F0A94E2F7422B4083EE89FF89E0
:1007F00020810F8C02C0880F991F0A94E2F7809520
:1008000082238083DF91CF91FF90EF90DF90CF9094
:100810000895109225011092240188EE93E0A0E043
:10082000B0E08093260190932701A0932801B09314
:1008300029018BE091E0909323018093220188E8C5
:1008400091E090932F0180932E0184E491E09093A6
:1008500031018093300185EC90E0909333018093D7
:10086000320184EC90E0909335018093340180EC68
:1008700090E0909337018093360181EC90E0909363
:1008800039018093380182EC90E090933B01809392
:100890003A0186EC90E090933D0180933C0184E026
:1008A00080933E0183E080933F0187E08093400185
:1008B00085E08093410181E0809342010895CF92C9
:1008C000DF92EF92FF920F931F93CF93DF936C0110
:1008D0007A01EB01E60EF71E00E010E0CE15DF0511
:1008E00061F06991D601ED91FC910190F081E02DCC
:1008F000C6010995080F191FF1CFC801DF91CF91EB
:100900001F910F91FF90EF90DF90CF90089504D04A
:100910006894B111B5C0089598D088F09F5790F0B1
:10092000B92F9927B751A0F0D1F0660F771F881F14
:10093000991F1AF0BA95C9F712C0B13081F09FD053
:10094000B1E008959CC0672F782F8827B85F39F0F1
:10095000B93FCCF3869577956795B395D9F73EF473
:1009600090958095709561957F4F8F4F9F4F08951B
:10097000E89409C097FB3EF4909580957095619539
:100980007F4F8F4F9F4F9923A9F0F92F96E9BB27EF
:100990009395F695879577956795B795F111F8CF6B
:1009A000FAF4BB0F11F460FF1BC06F5F7F4F8F4FD6
:1009B0009F4F16C0882311F096E911C0772321F0CC
:1009C0009EE8872F762F05C0662371F096E8862F64
:1009D00070E060E02AF09A95660F771F881FDAF7BB
:1009E000880F9695879597F9089597F99F6780E8FE
:1009F00070E060E008959FEF80EC089500240A9471
:100A00001616170618060906089500240A941216E9
:100A10001306140605060895092E0394000C11F41C
:100A2000882352F0BB0F40F4BF2B11F460FF04C0C9
:100A30006F5F7F4F8F4F9F4F089557FD9058440F22
:100A4000551F59F05F3F71F04795880F97FB991F2D
:100A500061F09F3F79F087950895121613061406EA
:100A6000551FF2CF4695F1DF08C016161706180677
:100A7000991FF1CF86957105610508940895E89452
:100A8000BB2766277727CB0197F908950BD0C4CFF2
:100A9000B5DF28F0BADF18F0952309F0A6CFABCF69
:100AA0001124EECFCADFA0F3959FD1F3950F50E04C
:100AB000551F629FF001729FBB27F00DB11D639F10
:100AC000AA27F00DB11DAA1F649F6627B00DA11DB6
:100AD000661F829F2227B00DA11D621F739FB00D5C
:100AE000A11D621F839FA00D611D221F749F3327CC
:100AF000A00D611D231F849F600D211D822F762F65
:100B00006A2F11249F5750408AF0E1F088234AF061
:100B1000EE0FFF1FBB1F661F771F881F91505040AD
:100B2000A9F79E3F510570F060CFAACF5F3FECF36D
:100B3000983EDCF3869577956795B795F795E79599
:100B40009F5FC1F7FE2B880F911D9695879597F9AA
:100B50000895A1E21A2EAA1BBB1BFD010DC0AA1FFE
:100B6000BB1FEE1FFF1FA217B307E407F50720F016
:100B7000A21BB30BE40BF50B661F771F881F991F91
:100B80001A9469F760957095809590959B01AC01DA
:100B9000BD01CF010895EE0FFF1F0590F491E02DE8
:060BA0000994F894FFCF58
:100BA600FFFFFF0101C30000000000CC025F0478D4
:080BB60002A1028802C1020045
:00000001FF
