:100000000C9434000C9451000C9451000C94510049
:100010000C9451000C9451000C9451000C9451001C
:100020000C9451000C9451000C9451000C9451000C
:100030000C9451000C9451000C9451000C945100FC
:100040000C9477030C9451000C9451000C945100C3
:100050000C9451000C9451000C9451000C945100DC
:100060000C9451000C94510011241FBECFEFD8E026
:10007000DEBFCDBF11E0A0E0B1E0EAE7FAE002C0E8
:1000800005900D92AC30B107D9F721E0ACE0B1E0BA
:1000900001C01D92A632B207E1F70E9445010C94FF
:1000A0003B050C940000413061F4E82FF0E08181C1
:1000B00021E030E0062E01C0220F0A94EAF7822BDD
:1000C0000EC041110DC0E82FF0E0818121E030E049
:1000D000062E01C0220F0A94EAF72095822381831D
:1000E00008950F933091C10038613093C1004530BD
:1000F000510549F43091C2003D7F3093C2003091E8
:10010000C2003B7F16C04630510521F43091C20039
:10011000326006C04730510531F43091C20034607E
:100120003093C20019C04830510549F43091C200E3
:1001300036603093C2003091C1003B7F0BC0493024
:10014000510551F43091C20036603093C2003091B5
:10015000C10034603093C1003091C2003F733093CE
:10016000C200011104C03091C2003F7C10C00130B8
:1001700021F43091C2003F7E05C0023051F430912D
:10018000C20030613093C2003091C20030623093BF
:10019000C200213021F42091C200277F05C0223007
:1001A00029F42091C20028602093C2009B01AC0179
:1001B00084E0220F331F441F551F8A95D1F760E05A
:1001C00072E18AE790E00E941905215031092093DD
:1001D000C4003093C5000F9108958091C00087FF3F
:1001E000FCCF8091C60008951F93CF93DF931F9299
:1001F000CDB7DEB7982F862F142F41E0692F2983C2
:100200000E9453002981E22FF0E0218181E090E0FB
:1002100001C0880F1A95EAF78095282321830F9053
:10022000DF91CF911F9108950E94ED0080930D0101
:10023000823711F0843631F480E00E94AC0281E014
:100240000E94AC0280E380930D0108950F9323E296
:1002500041E063E280E00E94F40023E243E063E2D5
:1002600082E00E94F40029E247E069E286E00E9411
:10027000F40000E021E048E050E060EC72E180E052
:1002800090E00E9471000F9108950E94E902789415
:100290000E94C1030E942601C0E0D0E00E94140128
:1002A0002097E1F30E940000F9CF413061F4E82F7C
:1002B000F0E0828121E030E0062E01C0220F0A9496
:1002C000EAF7822B0EC041110DC0E82FF0E08281C9
:1002D00021E030E0062E01C0220F0A94EAF72095B3
:1002E0008223828308951092800082E080938100AF
:1002F000109285001092840008951092810010924F
:1003000085001092840008951F93CF93DF93582F98
:10031000862FC62FD0E09A8121E030E0052E01C063
:10032000220F0A94EAF7122F109591239A839AE0EC
:100330009A95F1F700C041E0652F0E94550185E3D1
:100340008A95F1F700008A8181238A83DF91CF911A
:100350001F910895CF92DF92EF92FF92CF93DF9398
:1003600091E0F92E01C0FF0C8A95EAF780E89DE83C
:10037000ABE5B0E0C62FD0E028812F2151F40197E2
:10038000A109B1090097A105B105B1F78FEF9FEF62
:100390002FC00E94730180E89DE8ABE5B0E02881A2
:1003A0002F2179F0209184003091850021363A4E3A
:1003B00040F40197A109B1090097A105B10579F7AA
:1003C000E5CFC0908400D0908500E12CF12C0E94F4
:1003D0007D0181E6C8168AEED806E104F10430F406
:1003E000F694E794D794C794C60102C08EEF9FEFAE
:1003F000DF91CF91FF90EF90DF90CF900895BC01F7
:1004000080E090E00E94280428E23EE74CE05DE3B3
:100410000E948E0420E030E040E05FE30E948E0402
:100420000E94FC0370930F0160930E0180910E01F6
:1004300090910F01089563E280E00E94840163E2DD
:1004400081E00E94AA019093200180931F010E94E5
:10045000FF0180931C018F3110F080E30CC09BEEF4
:10046000980F9A3010F481E306C08B508A3010F454
:1004700082E301C083E38093210163E282E00E9472
:10048000840163E283E00E94AA019093200180939B
:100490001F010E94FF0180931D018F3110F080E346
:1004A0000CC09BEE980F9A3010F481E306C08B507D
:1004B0008A3010F482E301C083E38093220169E271
:1004C00086E00E94840169E287E00E94AA0190937D
:1004D000200180931F010E94FF0180931E018F3134
:1004E00010F080E30CC09BEE980F9A3010F481E37B
:1004F00006C08B508A3010F482E301C083E38093FE
:10050000230108959091C00095FFFCCF8093C60011
:1005100008958CE30E94820280910D01823759F484
:10052000809121010E948202809122010E94820218
:10053000809123010CC0843661F480911C010E94DB
:10054000820280911D010E94820280911E010E9400
:1005500082028EE30C9482021F93CF93DF931FB726
:10056000F894C82FDD27C7FDD095C65EDE4F988171
:10057000911102C00E940E0388818F3F11F08F5F9E
:10058000888380912401882329F01FBFDF91CF91B8
:100590001F910895809100018F3FB9F320910C01C4
:1005A000992787FD9095FC01EA5FFE4F3081231764
:1005B00060F7FC01EC5FFE4F8081822B80930C0181
:1005C0000E94FD020E94EB0287FFFCCFDECFF89471
:1005D000FFCFEEEC08957894E82FEE0FFF0BE85F65
:1005E000FE4F0190F081E02D309709F00995F894C5
:1005F0000E943B0380912501089580910001E82F1E
:10060000FF27E7FDF095EE5FFE4F9081909300018C
:1006100090910101908380930101089590910001D0
:10062000282F332727FD3095F901EA5FFE4F7081AF
:10063000EFEF9F3F81F0492F552747FD5095DA0195
:10064000AA5FBE4F6C91671730F0DA01AE5FBE4F04
:10065000E92F9C91EECFEF3F39F0FF27E7FDF095B2
:10066000EE5FFE4F808302C080930001F901EE5FD0
:10067000FE4F9083089580910101282F332727FD95
:100680003095F901E65EFE4F908191509083F9011B
:10069000EC5FFE4F5081509540910C0145234093F3
:1006A0000C01F901EE5FFE4F2081209301019111B1
:1006B0000E940E03809100018F3F59F020910C01A0
:1006C000992787FD9095FC01EA5FFE4F3081231743
:1006D00010F08FEF09C0FC01EC5FFE4F8081822B90
:1006E00080930C010E94FD028093250108951F92C2
:1006F0000F920FB60F9211242F933F938F939F93D6
:10070000AF93BF938091110190911201A0911301B9
:10071000B09114013091100123E0230F2D3720F404
:100720000196A11DB11D05C026E8230F0296A11D4B
:10073000B11D209310018093110190931201A09399
:100740001301B09314018091150190911601A091AD
:100750001701B09118010196A11DB11D80931501DB
:1007600090931601A0931701B0931801BF91AF9118
:100770009F918F913F912F910F900FBE0F901F90DF
:100780001895789484B5826084BD84B5816084BDF9
:1007900085B5826085BD85B5816085BDEEE6F0E0FA
:1007A000808181608083E1E8F0E010828081826056
:1007B0008083808181608083E0E8F0E080818160D7
:1007C0008083E1EBF0E0808184608083E0EBF0E007
:1007D000808181608083EAE7F0E0808184608083AB
:1007E0008081826080838081816080838081806855
:1007F00080831092C100089570D088F09F5790F0C8
:10080000B92F9927B751A0F0D1F0660F771F881F35
:10081000991F1AF0BA95C9F712C0B13081F077D09C
:10082000B1E0089574C0672F782F8827B85F39F03A
:10083000B93FCCF3869577956795B395D9F73EF494
:1008400090958095709561957F4F8F4F9F4F08953C
:10085000E89409C097FB3EF490958095709561955A
:100860007F4F8F4F9F4F9923A9F0F92F96E9BB2710
:100870009395F695879577956795B795F111F8CF8C
:10088000FAF4BB0F11F460FF1BC06F5F7F4F8F4FF7
:100890009F4F16C0882311F096E911C0772321F0ED
:1008A0009EE8872F762F05C0662371F096E8862F85
:1008B00070E060E02AF09A95660F771F881FDAF7DC
:1008C000880F9695879597F9089557FD9058440F8E
:1008D000551F59F05F3F71F04795880F97FB991F9F
:1008E00061F09F3F79F0879508951216130614065C
:1008F000551FF2CF4695F1DF08C0161617061806E9
:10090000991FF1CF86957105610508940895E894C3
:10091000BB2766277727CB0197F908950BD078C0BE
:1009200069D028F06ED018F0952309F05AC05FC046
:100930001124EECFCADFA0F3959FD1F3950F50E0BD
:10094000551F629FF001729FBB27F00DB11D639F81
:10095000AA27F00DB11DAA1F649F6627B00DA11D27
:10096000661F829F2227B00DA11D621F739FB00DCD
:10097000A11D621F839FA00D611D221F749F33273D
:10098000A00D611D231F849F600D211D822F762FD6
:100990006A2F11249F5750408AF0E1F088234AF0D3
:1009A000EE0FFF1FBB1F661F771F881F915050401F
:1009B000A9F79E3F510570F014C0AACF5F3FECF33A
:1009C000983EDCF3869577956795B795F795E7950B
:1009D0009F5FC1F7FE2B880F911D9695879597F91C
:1009E000089597F99F6780E870E060E008959FEFB1
:1009F00080EC089500240A941616170618060906B6
:100A0000089500240A941216130614060506089584
:100A1000092E0394000C11F4882352F0BB0F40F40C
:100A2000BF2B11F460FF04C06F5F7F4F8F4F9F4F4C
:100A30000895A1E21A2EAA1BBB1BFD010DC0AA1F1F
:100A4000BB1FEE1FFF1FA217B307E407F50720F037
:100A5000A21BB30BE40BF50B661F771F881F991FB2
:100A60001A9469F760957095809590959B01AC01FB
:0A0A7000BD01CF010895F894FFCFF7
:0C0A7A00FFFFFFFF010201021B028902C6
:00000001FF
